{
  "contractName": "Administrator",
  "abi": [
    {
      "constant": true,
      "inputs": [
        {
          "name": "",
          "type": "uint256"
        }
      ],
      "name": "storeOwners",
      "outputs": [
        {
          "name": "",
          "type": "address"
        }
      ],
      "payable": false,
      "stateMutability": "view",
      "type": "function"
    },
    {
      "inputs": [],
      "payable": false,
      "stateMutability": "nonpayable",
      "type": "constructor"
    },
    {
      "constant": false,
      "inputs": [
        {
          "name": "_storeOwner",
          "type": "address"
        }
      ],
      "name": "setStoreOwner",
      "outputs": [],
      "payable": false,
      "stateMutability": "nonpayable",
      "type": "function"
    }
  ],
  "bytecode": "0x608060405234801561001057600080fd5b50336000806101000a81548173ffffffffffffffffffffffffffffffffffffffff021916908373ffffffffffffffffffffffffffffffffffffffff16021790555061037a806100606000396000f30060806040526004361061004c576000357c0100000000000000000000000000000000000000000000000000000000900463ffffffff16806344d5099314610051578063f75b84f3146100be575b600080fd5b34801561005d57600080fd5b5061007c60048036038101908080359060200190929190505050610101565b604051808273ffffffffffffffffffffffffffffffffffffffff1673ffffffffffffffffffffffffffffffffffffffff16815260200191505060405180910390f35b3480156100ca57600080fd5b506100ff600480360381019080803573ffffffffffffffffffffffffffffffffffffffff16906020019092919050505061013f565b005b60028181548110151561011057fe5b906000526020600020016000915054906101000a900473ffffffffffffffffffffffffffffffffffffffff1681565b6000809054906101000a900473ffffffffffffffffffffffffffffffffffffffff1673ffffffffffffffffffffffffffffffffffffffff163373ffffffffffffffffffffffffffffffffffffffff161480156101e857506000809054906101000a900473ffffffffffffffffffffffffffffffffffffffff1673ffffffffffffffffffffffffffffffffffffffff168173ffffffffffffffffffffffffffffffffffffffff1614155b1515610282576040517f08c379a00000000000000000000000000000000000000000000000000000000081526004018080602001828103825260258152602001807f41646d696e6973747261746f722063616e6e6f7420626520612053746f72652081526020017f4f776e657200000000000000000000000000000000000000000000000000000081525060400191505060405180910390fd5b80600160006101000a81548173ffffffffffffffffffffffffffffffffffffffff021916908373ffffffffffffffffffffffffffffffffffffffff1602179055506002600160009054906101000a900473ffffffffffffffffffffffffffffffffffffffff1690806001815401808255809150509060018203906000526020600020016000909192909190916101000a81548173ffffffffffffffffffffffffffffffffffffffff021916908373ffffffffffffffffffffffffffffffffffffffff16021790555050505600a165627a7a72305820ea9e0c12dcd8640166255e26400e98bd3367f34f3a13a31d2de7acec0e46d4220029",
  "source": "pragma solidity ^0.4.21;\n\ncontract Administrator {\n\n    address administrator;\n    address storeOwner;\n    address[] public storeOwners; // public, list, get a list of store owners\n\n    constructor () public {\n        administrator = msg.sender;\n    }\n\n    /*\n        This function sets the Store Owner the only person that can withdraw\n        from a store. The \"require\" needs the administrator to the msg.sender in\n        order to be the one assigning whom a store owner is and also prevents\n        the administrator from assigning themselves as the store owner (We don't\n        need the administrator making themselves an owner and withdrawing the\n        stored funds)\n    */\n    function setStoreOwner(address _storeOwner) public{\n        //require(msg.sender!=administrator, \"You are not an Administrator\");\n        require(msg.sender == administrator && _storeOwner != administrator, \"Administrator cannot be a Store Owner\");\n        storeOwner = _storeOwner;\n        storeOwners.push(storeOwner);\n    }\n}\n",
  "sourcePath": "/home/zokuaku/Documents/Marketplace/contracts/Administrator.sol",
  "compiler": {
    "name": "solc",
    "version": "0.4.24+commit.e67f0147.Emscripten.clang"
  },
  "schemaVersion": "2.0.1",
  "updatedAt": "2018-08-26T05:16:03.737Z"
}