{
  "contractName": "Store",
  "abi": [
    {
      "constant": true,
      "inputs": [],
      "name": "owner",
      "outputs": [
        {
          "name": "",
          "type": "address"
        }
      ],
      "payable": false,
      "stateMutability": "view",
      "type": "function"
    },
    {
      "inputs": [],
      "payable": false,
      "stateMutability": "nonpayable",
      "type": "constructor"
    },
    {
      "anonymous": false,
      "inputs": [
        {
          "indexed": true,
          "name": "productAddress",
          "type": "address"
        },
        {
          "indexed": false,
          "name": "index",
          "type": "uint256"
        },
        {
          "indexed": false,
          "name": "prodName",
          "type": "string"
        },
        {
          "indexed": false,
          "name": "prodPrice",
          "type": "uint256"
        },
        {
          "indexed": false,
          "name": "prodQty",
          "type": "uint256"
        }
      ],
      "name": "LogNewProd",
      "type": "event"
    },
    {
      "anonymous": false,
      "inputs": [
        {
          "indexed": true,
          "name": "productAddress",
          "type": "address"
        },
        {
          "indexed": false,
          "name": "index",
          "type": "uint256"
        },
        {
          "indexed": false,
          "name": "prodName",
          "type": "string"
        },
        {
          "indexed": false,
          "name": "prodPrice",
          "type": "uint256"
        },
        {
          "indexed": false,
          "name": "prodQty",
          "type": "uint256"
        }
      ],
      "name": "LogUpdateProd",
      "type": "event"
    },
    {
      "anonymous": false,
      "inputs": [
        {
          "indexed": true,
          "name": "productAddress",
          "type": "address"
        },
        {
          "indexed": false,
          "name": "index",
          "type": "uint256"
        }
      ],
      "name": "LogDeleteProd",
      "type": "event"
    },
    {
      "anonymous": false,
      "inputs": [
        {
          "indexed": false,
          "name": "product",
          "type": "address"
        }
      ],
      "name": "LogProductCreated",
      "type": "event"
    },
    {
      "constant": true,
      "inputs": [
        {
          "name": "productAddress",
          "type": "address"
        }
      ],
      "name": "isProd",
      "outputs": [
        {
          "name": "isIndeed",
          "type": "bool"
        }
      ],
      "payable": false,
      "stateMutability": "view",
      "type": "function"
    },
    {
      "constant": false,
      "inputs": [
        {
          "name": "prodName",
          "type": "string"
        },
        {
          "name": "prodPrice",
          "type": "uint256"
        },
        {
          "name": "prodQty",
          "type": "uint256"
        }
      ],
      "name": "insertProd",
      "outputs": [
        {
          "name": "index",
          "type": "uint256"
        }
      ],
      "payable": false,
      "stateMutability": "nonpayable",
      "type": "function"
    },
    {
      "constant": true,
      "inputs": [
        {
          "name": "index",
          "type": "uint256"
        }
      ],
      "name": "getProdAtIndex",
      "outputs": [
        {
          "name": "storeAddress",
          "type": "address"
        }
      ],
      "payable": false,
      "stateMutability": "view",
      "type": "function"
    },
    {
      "constant": false,
      "inputs": [
        {
          "name": "index",
          "type": "uint256"
        }
      ],
      "name": "deleteProd",
      "outputs": [
        {
          "name": "productAddress",
          "type": "address"
        }
      ],
      "payable": false,
      "stateMutability": "nonpayable",
      "type": "function"
    },
    {
      "constant": true,
      "inputs": [
        {
          "name": "productAddress",
          "type": "address"
        }
      ],
      "name": "getProdDetail",
      "outputs": [
        {
          "name": "prodName",
          "type": "string"
        },
        {
          "name": "prodPrice",
          "type": "uint256"
        },
        {
          "name": "prodQty",
          "type": "uint256"
        },
        {
          "name": "index",
          "type": "uint256"
        }
      ],
      "payable": false,
      "stateMutability": "view",
      "type": "function"
    },
    {
      "constant": false,
      "inputs": [
        {
          "name": "storeAddress",
          "type": "address"
        },
        {
          "name": "prodName",
          "type": "string"
        }
      ],
      "name": "updateProdName",
      "outputs": [
        {
          "name": "success",
          "type": "bool"
        }
      ],
      "payable": false,
      "stateMutability": "nonpayable",
      "type": "function"
    },
    {
      "constant": false,
      "inputs": [
        {
          "name": "storeAddress",
          "type": "address"
        },
        {
          "name": "prodPrice",
          "type": "uint256"
        }
      ],
      "name": "updateProdPrice",
      "outputs": [
        {
          "name": "success",
          "type": "bool"
        }
      ],
      "payable": false,
      "stateMutability": "nonpayable",
      "type": "function"
    },
    {
      "constant": false,
      "inputs": [
        {
          "name": "storeAddress",
          "type": "address"
        },
        {
          "name": "prodQty",
          "type": "uint256"
        }
      ],
      "name": "updateProdQty",
      "outputs": [
        {
          "name": "success",
          "type": "bool"
        }
      ],
      "payable": false,
      "stateMutability": "nonpayable",
      "type": "function"
    },
    {
      "constant": true,
      "inputs": [],
      "name": "getProdCount",
      "outputs": [
        {
          "name": "count",
          "type": "uint256"
        }
      ],
      "payable": false,
      "stateMutability": "view",
      "type": "function"
    },
    {
      "constant": true,
      "inputs": [],
      "name": "getProdIndex",
      "outputs": [
        {
          "name": "",
          "type": "address[]"
        }
      ],
      "payable": false,
      "stateMutability": "view",
      "type": "function"
    }
  ],
  "bytecode": "0x608060405234801561001057600080fd5b50336000806101000a81548173ffffffffffffffffffffffffffffffffffffffff021916908373ffffffffffffffffffffffffffffffffffffffff160217905550611b2b806100606000396000f3006080604052600436106100ae576000357c0100000000000000000000000000000000000000000000000000000000900463ffffffff168062d111ea146100b35780631081a801146101185780632854edf81461018457806343abd258146101e957806364ab217f1461025657806377e3bcfb146102f75780637850e608146103525780637f1b4881146103e35780638da5cb5b1461040e5780638dee6b0014610465578063a45cb41b14610536575b600080fd5b3480156100bf57600080fd5b506100fe600480360381019080803573ffffffffffffffffffffffffffffffffffffffff169060200190929190803590602001909291905050506105a3565b604051808215151515815260200191505060405180910390f35b34801561012457600080fd5b5061012d610846565b6040518080602001828103825283818151815260200191508051906020019060200280838360005b83811015610170578082015181840152602081019050610155565b505050509050019250505060405180910390f35b34801561019057600080fd5b506101cf600480360381019080803573ffffffffffffffffffffffffffffffffffffffff169060200190929190803590602001909291905050506108d4565b604051808215151515815260200191505060405180910390f35b3480156101f557600080fd5b5061021460048036038101908080359060200190929190505050610b77565b604051808273ffffffffffffffffffffffffffffffffffffffff1673ffffffffffffffffffffffffffffffffffffffff16815260200191505060405180910390f35b34801561026257600080fd5b506102dd600480360381019080803573ffffffffffffffffffffffffffffffffffffffff169060200190929190803590602001908201803590602001908080601f0160208091040260200160405190810160405280939291908181526020018383808284378201915050505050509192919290505050610f45565b604051808215151515815260200191505060405180910390f35b34801561030357600080fd5b50610338600480360381019080803573ffffffffffffffffffffffffffffffffffffffff1690602001909291905050506111dc565b604051808215151515815260200191505060405180910390f35b34801561035e57600080fd5b506103cd600480360381019080803590602001908201803590602001908080601f016020809104026020016040519081016040528093929190818152602001838380828437820191505050505050919291929080359060200190929190803590602001909291905050506112a6565b6040518082815260200191505060405180910390f35b3480156103ef57600080fd5b506103f8611601565b6040518082815260200191505060405180910390f35b34801561041a57600080fd5b5061042361160e565b604051808273ffffffffffffffffffffffffffffffffffffffff1673ffffffffffffffffffffffffffffffffffffffff16815260200191505060405180910390f35b34801561047157600080fd5b506104a6600480360381019080803573ffffffffffffffffffffffffffffffffffffffff169060200190929190505050611633565b6040518080602001858152602001848152602001838152602001828103825286818151815260200191508051906020019080838360005b838110156104f85780820151818401526020810190506104dd565b50505050905090810190601f1680156105255780820380516001836020036101000a031916815260200191505b509550505050505060405180910390f35b34801561054257600080fd5b5061056160048036038101908080359060200190929190505050611893565b604051808273ffffffffffffffffffffffffffffffffffffffff1673ffffffffffffffffffffffffffffffffffffffff16815260200191505060405180910390f35b60006105ae836111dc565b1515610648576040517f08c379a000000000000000000000000000000000000000000000000000000000815260040180806020018281038252602e8152602001807f43616e277420757064617465205175616e746974792c2050726f64756374206481526020017f6f6573206e6f742065786973742e00000000000000000000000000000000000081525060400191505060405180910390fd5b81600160008573ffffffffffffffffffffffffffffffffffffffff1673ffffffffffffffffffffffffffffffffffffffff168152602001908152602001600020600201819055508273ffffffffffffffffffffffffffffffffffffffff167f515556460978198172693903d11d7844e62e3b7a3cae03403d8d4b57bc64749c600160008673ffffffffffffffffffffffffffffffffffffffff1673ffffffffffffffffffffffffffffffffffffffff16815260200190815260200160002060030154600160008773ffffffffffffffffffffffffffffffffffffffff1673ffffffffffffffffffffffffffffffffffffffff168152602001908152602001600020600001600160008873ffffffffffffffffffffffffffffffffffffffff1673ffffffffffffffffffffffffffffffffffffffff1681526020019081526020016000206001015486604051808581526020018060200184815260200183815260200182810382528581815460018160011615610100020316600290048152602001915080546001816001161561010002031660029004801561082b5780601f106108005761010080835404028352916020019161082b565b820191906000526020600020905b81548152906001019060200180831161080e57829003601f168201915b50509550505050505060405180910390a26001905092915050565b606060028054806020026020016040519081016040528092919081815260200182805480156108ca57602002820191906000526020600020905b8160009054906101000a900473ffffffffffffffffffffffffffffffffffffffff1673ffffffffffffffffffffffffffffffffffffffff1681526020019060010190808311610880575b5050505050905090565b60006108df836111dc565b1515610979576040517f08c379a000000000000000000000000000000000000000000000000000000000815260040180806020018281038252602b8152602001807f43616e2774207570646174652050726963652c2050726f6475637420646f657381526020017f206e6f742065786973742e00000000000000000000000000000000000000000081525060400191505060405180910390fd5b81600160008573ffffffffffffffffffffffffffffffffffffffff1673ffffffffffffffffffffffffffffffffffffffff168152602001908152602001600020600101819055508273ffffffffffffffffffffffffffffffffffffffff167f515556460978198172693903d11d7844e62e3b7a3cae03403d8d4b57bc64749c600160008673ffffffffffffffffffffffffffffffffffffffff1673ffffffffffffffffffffffffffffffffffffffff16815260200190815260200160002060030154600160008773ffffffffffffffffffffffffffffffffffffffff1673ffffffffffffffffffffffffffffffffffffffff16815260200190815260200160002060000185600160008973ffffffffffffffffffffffffffffffffffffffff1673ffffffffffffffffffffffffffffffffffffffff168152602001908152602001600020600201546040518085815260200180602001848152602001838152602001828103825285818154600181600116156101000203166002900481526020019150805460018160011615610100020316600290048015610b5c5780601f10610b3157610100808354040283529160200191610b5c565b820191906000526020600020905b815481529060010190602001808311610b3f57829003601f168201915b50509550505050505060405180910390a26001905092915050565b6000806000806002805490508511158015610b93575060008510155b1515610c07576040517f08c379a000000000000000000000000000000000000000000000000000000000815260040180806020018281038252601e8152602001807f43616e27742064656c657465206e6f2050726f6475637420666f756e642e000081525060200191505060405180910390fd5b849250600285815481101515610c1957fe5b9060005260206000200160009054906101000a900473ffffffffffffffffffffffffffffffffffffffff1691506002600160028054905003815481101515610c5d57fe5b9060005260206000200160009054906101000a900473ffffffffffffffffffffffffffffffffffffffff16905080600284815481101515610c9a57fe5b9060005260206000200160006101000a81548173ffffffffffffffffffffffffffffffffffffffff021916908373ffffffffffffffffffffffffffffffffffffffff16021790555082600160008373ffffffffffffffffffffffffffffffffffffffff1673ffffffffffffffffffffffffffffffffffffffff168152602001908152602001600020600301819055506002805480919060019003610d3e91906118d6565b508173ffffffffffffffffffffffffffffffffffffffff167f6e8b707c4b2834acb092519ec014d777e3e3fb60ab869094a7a6206b457f1fc4846040518082815260200191505060405180910390a28073ffffffffffffffffffffffffffffffffffffffff167f515556460978198172693903d11d7844e62e3b7a3cae03403d8d4b57bc64749c84600160008573ffffffffffffffffffffffffffffffffffffffff1673ffffffffffffffffffffffffffffffffffffffff168152602001908152602001600020600001600160008673ffffffffffffffffffffffffffffffffffffffff1673ffffffffffffffffffffffffffffffffffffffff16815260200190815260200160002060010154600160008773ffffffffffffffffffffffffffffffffffffffff1673ffffffffffffffffffffffffffffffffffffffff168152602001908152602001600020600201546040518085815260200180602001848152602001838152602001828103825285818154600181600116156101000203166002900481526020019150805460018160011615610100020316600290048015610f295780601f10610efe57610100808354040283529160200191610f29565b820191906000526020600020905b815481529060010190602001808311610f0c57829003601f168201915b50509550505050505060405180910390a2819350505050919050565b6000610f50836111dc565b1515610fea576040517f08c379a00000000000000000000000000000000000000000000000000000000081526004018080602001828103825260298152602001807f43616e277420757064617465204e616d652c2050726f6475637420646f65732081526020017f6e6f74206578697374000000000000000000000000000000000000000000000081525060400191505060405180910390fd5b81600160008573ffffffffffffffffffffffffffffffffffffffff1673ffffffffffffffffffffffffffffffffffffffff1681526020019081526020016000206000019080519060200190611040929190611902565b508273ffffffffffffffffffffffffffffffffffffffff167f515556460978198172693903d11d7844e62e3b7a3cae03403d8d4b57bc64749c600160008673ffffffffffffffffffffffffffffffffffffffff1673ffffffffffffffffffffffffffffffffffffffff1681526020019081526020016000206003015484600160008873ffffffffffffffffffffffffffffffffffffffff1673ffffffffffffffffffffffffffffffffffffffff16815260200190815260200160002060010154600160008973ffffffffffffffffffffffffffffffffffffffff1673ffffffffffffffffffffffffffffffffffffffff168152602001908152602001600020600201546040518085815260200180602001848152602001838152602001828103825285818151815260200191508051906020019080838360005b8381101561119557808201518184015260208101905061117a565b50505050905090810190601f1680156111c25780820380516001836020036101000a031916815260200191505b509550505050505060405180910390a26001905092915050565b60008060028054905014156111f457600090506112a1565b8173ffffffffffffffffffffffffffffffffffffffff166002600160008573ffffffffffffffffffffffffffffffffffffffff1673ffffffffffffffffffffffffffffffffffffffff1681526020019081526020016000206003015481548110151561125c57fe5b9060005260206000200160009054906101000a900473ffffffffffffffffffffffffffffffffffffffff1673ffffffffffffffffffffffffffffffffffffffff161490505b919050565b6000806112b1611982565b604051809103906000f0801580156112cd573d6000803e3d6000fd5b5090506112d9816111dc565b15151561134e576040517f08c379a00000000000000000000000000000000000000000000000000000000081526004018080602001828103825260168152602001807f50726f6475637420616c7265616479206578697374730000000000000000000081525060200191505060405180910390fd5b84600160008373ffffffffffffffffffffffffffffffffffffffff1673ffffffffffffffffffffffffffffffffffffffff16815260200190815260200160002060000190805190602001906113a4929190611902565b5083600160008373ffffffffffffffffffffffffffffffffffffffff1673ffffffffffffffffffffffffffffffffffffffff1681526020019081526020016000206001018190555082600160008373ffffffffffffffffffffffffffffffffffffffff1673ffffffffffffffffffffffffffffffffffffffff16815260200190815260200160002060020181905550600160028290806001815401808255809150509060018203906000526020600020016000909192909190916101000a81548173ffffffffffffffffffffffffffffffffffffffff021916908373ffffffffffffffffffffffffffffffffffffffff16021790555003600160008373ffffffffffffffffffffffffffffffffffffffff1673ffffffffffffffffffffffffffffffffffffffff168152602001908152602001600020600301819055508073ffffffffffffffffffffffffffffffffffffffff167ff826c16cd197b47771763840d536cb10b6245076a62f2969d10ca2e2d42d7452600160008473ffffffffffffffffffffffffffffffffffffffff1673ffffffffffffffffffffffffffffffffffffffff168152602001908152602001600020600301548787876040518085815260200180602001848152602001838152602001828103825285818151815260200191508051906020019080838360005b838110156115b1578082015181840152602081019050611596565b50505050905090810190601f1680156115de5780820380516001836020036101000a031916815260200191505b509550505050505060405180910390a26001600280549050039150509392505050565b6000600280549050905090565b6000809054906101000a900473ffffffffffffffffffffffffffffffffffffffff1681565b60606000806000611643856111dc565b15156116dd576040517f08c379a00000000000000000000000000000000000000000000000000000000081526004018080602001828103825260238152602001807f4e6f2044657461696c732c2050726f6475637420646f6573206e6f742065786981526020017f73742e000000000000000000000000000000000000000000000000000000000081525060400191505060405180910390fd5b600160008673ffffffffffffffffffffffffffffffffffffffff1673ffffffffffffffffffffffffffffffffffffffff168152602001908152602001600020600001600160008773ffffffffffffffffffffffffffffffffffffffff1673ffffffffffffffffffffffffffffffffffffffff16815260200190815260200160002060010154600160008873ffffffffffffffffffffffffffffffffffffffff1673ffffffffffffffffffffffffffffffffffffffff16815260200190815260200160002060020154600160008973ffffffffffffffffffffffffffffffffffffffff1673ffffffffffffffffffffffffffffffffffffffff16815260200190815260200160002060030154838054600181600116156101000203166002900480601f01602080910402602001604051908101604052809291908181526020018280546001816001161561010002031660029004801561187d5780601f106118525761010080835404028352916020019161187d565b820191906000526020600020905b81548152906001019060200180831161186057829003601f168201915b5050505050935093509350935093509193509193565b60006002828154811015156118a457fe5b9060005260206000200160009054906101000a900473ffffffffffffffffffffffffffffffffffffffff169050919050565b8154818355818111156118fd578183600052602060002091820191016118fc9190611992565b5b505050565b828054600181600116156101000203166002900490600052602060002090601f016020900481019282601f1061194357805160ff1916838001178555611971565b82800160010185558215611971579182015b82811115611970578251825591602001919060010190611955565b5b50905061197e9190611992565b5090565b604051610148806119b883390190565b6119b491905b808211156119b0576000816000905550600101611998565b5090565b905600608060405234801561001057600080fd5b50336000806101000a81548173ffffffffffffffffffffffffffffffffffffffff021916908373ffffffffffffffffffffffffffffffffffffffff16021790555060e98061005f6000396000f300608060405260043610603f576000357c0100000000000000000000000000000000000000000000000000000000900463ffffffff1680638da5cb5b146044575b600080fd5b348015604f57600080fd5b5060566098565b604051808273ffffffffffffffffffffffffffffffffffffffff1673ffffffffffffffffffffffffffffffffffffffff16815260200191505060405180910390f35b6000809054906101000a900473ffffffffffffffffffffffffffffffffffffffff16815600a165627a7a72305820f7a2a99c4baa8b822b9f04773b450626928114c046ae01a27995518dc1aa0f170029a165627a7a723058202b4426ca5297eb5da506c8d69c9d3163ae4b0f390d0223777c009f47ad18398e0029",
  "source": "pragma solidity ^0.4.21;\n\nimport \"../contracts/Product.sol\";\n\ncontract Store {\n\n    address public owner;\n\n    constructor () public {\n        owner = msg.sender;\n    }\n\n    struct StoreStruct {\n        string prodName;\n        uint prodPrice;\n        uint prodQty;\n        uint index;\n    }\n\n    mapping(address => StoreStruct) private StoreStructs;\n    address[] private prodIndex;\n\n    event LogNewProd(address indexed productAddress, uint index, string prodName, uint prodPrice, uint prodQty);\n    event LogUpdateProd(address indexed productAddress, uint index, string prodName, uint prodPrice, uint prodQty);\n    event LogDeleteProd(address indexed productAddress, uint index);\n    event LogProductCreated(address product);\n\n    function isProd(address productAddress)\n    public\n    constant\n    returns(bool isIndeed){\n        if(prodIndex.length == 0) return false;\n        return (prodIndex[StoreStructs[productAddress].index] == productAddress);\n    }\n\n   /*\n    function prodIndCount (address product) public constant returns(uint count){\n        return StoreStructs[product].prodInd.length;\n    }\n\n    function prodIndAtIndex (address product, uint index) public constant returns (address productAddress){\n        return StoreStructs[product].prodInd[index];\n    }\n    */\n\n    function insertProd(\n    string prodName,\n    uint prodPrice,\n    uint prodQty)\n    public\n    returns(uint index){\n        Product product = new Product();\n        require(!isProd(product),\"Product already exists\");\n        StoreStructs[product].prodName = prodName;\n        StoreStructs[product].prodPrice = prodPrice;\n        StoreStructs[product].prodQty = prodQty;\n        StoreStructs[product].index = prodIndex.push(product)-1;\n        emit LogNewProd(\n            product,\n            StoreStructs[product].index,\n            prodName,\n            prodPrice,\n            prodQty);\n        return prodIndex.length-1;\n    }\n\n    function getProdAtIndex(uint index)\n    public\n    constant\n    returns(address storeAddress){\n        return prodIndex[index];\n    }\n\n    function deleteProd(uint index)\n    public\n    returns(address productAddress){\n        require(index <= prodIndex.length && index >= 0, \"Can't delete no Product found.\");\n        uint rowToDelete = index;\n        address keyToDel = prodIndex[index];\n        address keyToMove = prodIndex[prodIndex.length-1];\n        prodIndex[rowToDelete] = keyToMove;\n        StoreStructs[keyToMove].index = rowToDelete;\n        prodIndex.length--;\n        emit LogDeleteProd(\n            keyToDel,\n            rowToDelete);\n        emit LogUpdateProd(\n            keyToMove,\n            rowToDelete,\n            StoreStructs[keyToMove].prodName,\n            StoreStructs[keyToMove].prodPrice,\n            StoreStructs[keyToMove].prodQty);\n        return keyToDel;\n    }\n\n    function getProdDetail(address productAddress)\n    public\n    constant\n    returns(string prodName, uint prodPrice, uint prodQty, uint index){\n        require(isProd(productAddress),\"No Details, Product does not exist.\");\n        return(\n            StoreStructs[productAddress].prodName,\n            StoreStructs[productAddress].prodPrice,\n            StoreStructs[productAddress].prodQty,\n            StoreStructs[productAddress].index);\n    }\n\n    function updateProdName(address storeAddress, string prodName)\n    public\n    returns(bool success){\n        require(isProd(storeAddress),\"Can't update Name, Product does not exist\");\n        StoreStructs[storeAddress].prodName = prodName;\n        emit LogUpdateProd(\n            storeAddress,\n            StoreStructs[storeAddress].index,\n            prodName,\n            StoreStructs[storeAddress].prodPrice,\n            StoreStructs[storeAddress].prodQty);\n        return true;\n    }\n\n    function updateProdPrice(address storeAddress, uint prodPrice)\n    public\n    returns(bool success){\n        require(isProd(storeAddress), \"Can't update Price, Product does not exist.\");\n        StoreStructs[storeAddress].prodPrice = prodPrice;\n        emit LogUpdateProd(\n            storeAddress,\n            StoreStructs[storeAddress].index,\n            StoreStructs[storeAddress].prodName,\n            prodPrice,\n            StoreStructs[storeAddress].prodQty);\n        return true;\n    }\n\n    function updateProdQty(address storeAddress, uint prodQty)\n    public\n    returns(bool success){\n        require(isProd(storeAddress), \"Can't update Quantity, Product does not exist.\");\n        StoreStructs[storeAddress].prodQty = prodQty;\n        emit LogUpdateProd(\n            storeAddress,\n            StoreStructs[storeAddress].index,\n            StoreStructs[storeAddress].prodName,\n            StoreStructs[storeAddress].prodPrice,\n            prodQty);\n        return true;\n    }\n\n    function getProdCount()\n    public\n    constant\n    returns(uint count){\n        return prodIndex.length;\n    }\n\n    function getProdIndex() public view returns(address[]){\n      return prodIndex;\n    }\n\n    function withdraw(uint amount) private{\n        require(msg.sender == owner);\n        msg.sender.transfer(amount);\n    }\n\n    function getBalance() private view returns (uint){\n        require(msg.sender == owner);\n        return address(this).balance;\n    }\n}\n",
  "sourcePath": "/home/zokuaku/Documents/Marketplace/contracts/Store.sol",
  "compiler": {
    "name": "solc",
    "version": "0.4.24+commit.e67f0147.Emscripten.clang"
  },
  "schemaVersion": "2.0.1",
  "updatedAt": "2018-08-26T05:16:03.733Z"
}