{
  "contractName": "TotalMarketplace",
  "abi": [
    {
      "constant": true,
      "inputs": [
        {
          "name": "",
          "type": "address"
        }
      ],
      "name": "UserBalance",
      "outputs": [
        {
          "name": "",
          "type": "uint256"
        }
      ],
      "payable": false,
      "stateMutability": "view",
      "type": "function"
    },
    {
      "constant": true,
      "inputs": [
        {
          "name": "",
          "type": "uint256"
        }
      ],
      "name": "stores",
      "outputs": [
        {
          "name": "",
          "type": "address"
        }
      ],
      "payable": false,
      "stateMutability": "view",
      "type": "function"
    },
    {
      "inputs": [],
      "payable": false,
      "stateMutability": "nonpayable",
      "type": "constructor"
    },
    {
      "anonymous": false,
      "inputs": [
        {
          "indexed": false,
          "name": "store",
          "type": "address"
        }
      ],
      "name": "LogStoreCreated",
      "type": "event"
    },
    {
      "anonymous": false,
      "inputs": [
        {
          "indexed": true,
          "name": "productAddress",
          "type": "address"
        },
        {
          "indexed": false,
          "name": "index",
          "type": "uint256"
        },
        {
          "indexed": false,
          "name": "storeAddress",
          "type": "address"
        },
        {
          "indexed": false,
          "name": "indexStore",
          "type": "uint256"
        },
        {
          "indexed": false,
          "name": "prodName",
          "type": "string"
        },
        {
          "indexed": false,
          "name": "prodPrice",
          "type": "uint256"
        },
        {
          "indexed": false,
          "name": "prodQty",
          "type": "uint256"
        }
      ],
      "name": "LogNewProd",
      "type": "event"
    },
    {
      "anonymous": false,
      "inputs": [
        {
          "indexed": true,
          "name": "productAddress",
          "type": "address"
        },
        {
          "indexed": false,
          "name": "index",
          "type": "uint256"
        },
        {
          "indexed": false,
          "name": "prodName",
          "type": "string"
        },
        {
          "indexed": false,
          "name": "prodPrice",
          "type": "uint256"
        },
        {
          "indexed": false,
          "name": "prodQty",
          "type": "uint256"
        }
      ],
      "name": "LogUpdateProd",
      "type": "event"
    },
    {
      "anonymous": false,
      "inputs": [
        {
          "indexed": true,
          "name": "productAddress",
          "type": "address"
        },
        {
          "indexed": false,
          "name": "index",
          "type": "uint256"
        }
      ],
      "name": "LogDeleteProd",
      "type": "event"
    },
    {
      "constant": false,
      "inputs": [],
      "name": "toggleContractActive",
      "outputs": [
        {
          "name": "",
          "type": "bool"
        }
      ],
      "payable": false,
      "stateMutability": "nonpayable",
      "type": "function"
    },
    {
      "constant": true,
      "inputs": [
        {
          "name": "ownerAddress",
          "type": "address"
        }
      ],
      "name": "isOwner",
      "outputs": [
        {
          "name": "isIndeed",
          "type": "bool"
        }
      ],
      "payable": false,
      "stateMutability": "view",
      "type": "function"
    },
    {
      "constant": true,
      "inputs": [],
      "name": "getAdministrator",
      "outputs": [
        {
          "name": "",
          "type": "address"
        }
      ],
      "payable": false,
      "stateMutability": "view",
      "type": "function"
    },
    {
      "constant": false,
      "inputs": [
        {
          "name": "ownerAddress",
          "type": "address"
        },
        {
          "name": "ownerName",
          "type": "string"
        },
        {
          "name": "ownerEmail",
          "type": "string"
        }
      ],
      "name": "setStoreOwner",
      "outputs": [
        {
          "name": "index",
          "type": "uint256"
        }
      ],
      "payable": false,
      "stateMutability": "nonpayable",
      "type": "function"
    },
    {
      "constant": true,
      "inputs": [],
      "name": "getOwnersIndex",
      "outputs": [
        {
          "name": "",
          "type": "address[]"
        }
      ],
      "payable": false,
      "stateMutability": "view",
      "type": "function"
    },
    {
      "constant": false,
      "inputs": [],
      "name": "createStore",
      "outputs": [],
      "payable": true,
      "stateMutability": "payable",
      "type": "function"
    },
    {
      "constant": true,
      "inputs": [
        {
          "name": "productAddress",
          "type": "address"
        }
      ],
      "name": "isProd",
      "outputs": [
        {
          "name": "isIndeed",
          "type": "bool"
        }
      ],
      "payable": false,
      "stateMutability": "view",
      "type": "function"
    },
    {
      "constant": false,
      "inputs": [
        {
          "name": "storeAddress",
          "type": "address"
        },
        {
          "name": "prodName",
          "type": "string"
        },
        {
          "name": "prodPrice",
          "type": "uint256"
        },
        {
          "name": "prodQty",
          "type": "uint256"
        }
      ],
      "name": "insertProd",
      "outputs": [
        {
          "name": "index",
          "type": "uint256"
        }
      ],
      "payable": false,
      "stateMutability": "nonpayable",
      "type": "function"
    },
    {
      "constant": true,
      "inputs": [
        {
          "name": "index",
          "type": "uint256"
        }
      ],
      "name": "getProdAtIndex",
      "outputs": [
        {
          "name": "prodAddress",
          "type": "address"
        }
      ],
      "payable": false,
      "stateMutability": "view",
      "type": "function"
    },
    {
      "constant": false,
      "inputs": [
        {
          "name": "index",
          "type": "uint256"
        }
      ],
      "name": "deleteProd",
      "outputs": [
        {
          "name": "productAddress",
          "type": "address"
        }
      ],
      "payable": false,
      "stateMutability": "nonpayable",
      "type": "function"
    },
    {
      "constant": true,
      "inputs": [
        {
          "name": "productAddress",
          "type": "address"
        }
      ],
      "name": "getProdDetail",
      "outputs": [
        {
          "name": "prodName",
          "type": "string"
        },
        {
          "name": "prodPrice",
          "type": "uint256"
        },
        {
          "name": "prodQty",
          "type": "uint256"
        },
        {
          "name": "index",
          "type": "uint256"
        }
      ],
      "payable": false,
      "stateMutability": "view",
      "type": "function"
    },
    {
      "constant": false,
      "inputs": [
        {
          "name": "prodAddress",
          "type": "address"
        },
        {
          "name": "prodName",
          "type": "string"
        }
      ],
      "name": "updateProdName",
      "outputs": [
        {
          "name": "success",
          "type": "bool"
        }
      ],
      "payable": false,
      "stateMutability": "nonpayable",
      "type": "function"
    },
    {
      "constant": false,
      "inputs": [
        {
          "name": "prodAddress",
          "type": "address"
        },
        {
          "name": "prodPrice",
          "type": "uint256"
        }
      ],
      "name": "updateProdPrice",
      "outputs": [
        {
          "name": "success",
          "type": "bool"
        }
      ],
      "payable": false,
      "stateMutability": "nonpayable",
      "type": "function"
    },
    {
      "constant": false,
      "inputs": [
        {
          "name": "prodAddress",
          "type": "address"
        },
        {
          "name": "prodQty",
          "type": "uint256"
        }
      ],
      "name": "updateProdQty",
      "outputs": [
        {
          "name": "success",
          "type": "bool"
        }
      ],
      "payable": false,
      "stateMutability": "nonpayable",
      "type": "function"
    },
    {
      "constant": true,
      "inputs": [],
      "name": "getProdCount",
      "outputs": [
        {
          "name": "count",
          "type": "uint256"
        }
      ],
      "payable": false,
      "stateMutability": "view",
      "type": "function"
    },
    {
      "constant": true,
      "inputs": [],
      "name": "getProdIndex",
      "outputs": [
        {
          "name": "",
          "type": "address[]"
        }
      ],
      "payable": false,
      "stateMutability": "view",
      "type": "function"
    },
    {
      "constant": true,
      "inputs": [
        {
          "name": "clientAddress",
          "type": "address"
        }
      ],
      "name": "getUserBalance",
      "outputs": [
        {
          "name": "balance",
          "type": "uint256"
        }
      ],
      "payable": false,
      "stateMutability": "view",
      "type": "function"
    },
    {
      "constant": false,
      "inputs": [
        {
          "name": "storeAddress",
          "type": "address"
        },
        {
          "name": "prodAddress",
          "type": "address"
        }
      ],
      "name": "purchaseProduct",
      "outputs": [
        {
          "name": "success",
          "type": "bool"
        }
      ],
      "payable": true,
      "stateMutability": "payable",
      "type": "function"
    },
    {
      "constant": false,
      "inputs": [
        {
          "name": "storeAddress",
          "type": "address"
        }
      ],
      "name": "withdraw",
      "outputs": [
        {
          "name": "",
          "type": "bool"
        }
      ],
      "payable": false,
      "stateMutability": "nonpayable",
      "type": "function"
    }
  ],
  "bytecode": "0x60806040526000600b60006101000a81548160ff0219169083151502179055503480156200002c57600080fd5b50336000806101000a81548173ffffffffffffffffffffffffffffffffffffffff021916908373ffffffffffffffffffffffffffffffffffffffff1602179055506000809054906101000a900473ffffffffffffffffffffffffffffffffffffffff1673ffffffffffffffffffffffffffffffffffffffff163373ffffffffffffffffffffffffffffffffffffffff1614158015620000e8575060011515620000e4336200017d640100000000026401000000009004565b1515145b15620001355733600160006101000a81548173ffffffffffffffffffffffffffffffffffffffff021916908373ffffffffffffffffffffffffffffffffffffffff16021790555062000177565b33600260006101000a81548173ffffffffffffffffffffffffffffffffffffffff021916908373ffffffffffffffffffffffffffffffffffffffff1602179055505b6200024a565b600080600580549050141562000197576000905062000245565b8173ffffffffffffffffffffffffffffffffffffffff166005600460008573ffffffffffffffffffffffffffffffffffffffff1673ffffffffffffffffffffffffffffffffffffffff168152602001908152602001600020600301548154811015156200020057fe5b9060005260206000200160009054906101000a900473ffffffffffffffffffffffffffffffffffffffff1673ffffffffffffffffffffffffffffffffffffffff161490505b919050565b6131d8806200025a6000396000f30060806040526004361061011c576000357c0100000000000000000000000000000000000000000000000000000000900463ffffffff168062d111ea146101215780631081a801146101865780631385d24c146101f2578063169674071461022157806317a498b8146102785780631f616b52146102e45780632854edf8146103c75780632f54bf6e1461042c57806343abd2581461048757806347734892146104f457806351cff8d91461054b5780636191e43b146105a65780636403873d1461065757806364ab217f146106c557806377e3bcfb146107665780637f1b4881146107c15780638dee6b00146107ec5780639e2960cb146108bd578063a45cb41b14610914578063e8a59cd814610981578063fb122ac8146109ee575b600080fd5b34801561012d57600080fd5b5061016c600480360381019080803573ffffffffffffffffffffffffffffffffffffffff169060200190929190803590602001909291905050506109f8565b604051808215151515815260200191505060405180910390f35b34801561019257600080fd5b5061019b610c9b565b6040518080602001828103825283818151815260200191508051906020019060200280838360005b838110156101de5780820151818401526020810190506101c3565b505050509050019250505060405180910390f35b3480156101fe57600080fd5b50610207610d29565b604051808215151515815260200191505060405180910390f35b34801561022d57600080fd5b50610236610e2e565b604051808273ffffffffffffffffffffffffffffffffffffffff1673ffffffffffffffffffffffffffffffffffffffff16815260200191505060405180910390f35b34801561028457600080fd5b5061028d610e57565b6040518080602001828103825283818151815260200191508051906020019060200280838360005b838110156102d05780820151818401526020810190506102b5565b505050509050019250505060405180910390f35b3480156102f057600080fd5b506103b1600480360381019080803573ffffffffffffffffffffffffffffffffffffffff169060200190929190803590602001908201803590602001908080601f0160208091040260200160405190810160405280939291908181526020018383808284378201915050505050509192919290803590602001908201803590602001908080601f0160208091040260200160405190810160405280939291908181526020018383808284378201915050505050509192919290505050610ee5565b6040518082815260200191505060405180910390f35b3480156103d357600080fd5b50610412600480360381019080803573ffffffffffffffffffffffffffffffffffffffff169060200190929190803590602001909291905050506111be565b604051808215151515815260200191505060405180910390f35b34801561043857600080fd5b5061046d600480360381019080803573ffffffffffffffffffffffffffffffffffffffff169060200190929190505050611461565b604051808215151515815260200191505060405180910390f35b34801561049357600080fd5b506104b26004803603810190808035906020019092919050505061152b565b604051808273ffffffffffffffffffffffffffffffffffffffff1673ffffffffffffffffffffffffffffffffffffffff16815260200191505060405180910390f35b34801561050057600080fd5b50610535600480360381019080803573ffffffffffffffffffffffffffffffffffffffff1690602001909291905050506118f9565b6040518082815260200191505060405180910390f35b34801561055757600080fd5b5061058c600480360381019080803573ffffffffffffffffffffffffffffffffffffffff16906020019092919050505061191a565b604051808215151515815260200191505060405180910390f35b3480156105b257600080fd5b50610641600480360381019080803573ffffffffffffffffffffffffffffffffffffffff169060200190929190803590602001908201803590602001908080601f01602080910402602001604051908101604052809392919081815260200183838082843782019150505050505091929192908035906020019092919080359060200190929190505050611baa565b6040518082815260200191505060405180910390f35b6106ab600480360381019080803573ffffffffffffffffffffffffffffffffffffffff169060200190929190803573ffffffffffffffffffffffffffffffffffffffff1690602001909291905050506120ad565b604051808215151515815260200191505060405180910390f35b3480156106d157600080fd5b5061074c600480360381019080803573ffffffffffffffffffffffffffffffffffffffff169060200190929190803590602001908201803590602001908080601f0160208091040260200160405190810160405280939291908181526020018383808284378201915050505050509192919290505050612500565b604051808215151515815260200191505060405180910390f35b34801561077257600080fd5b506107a7600480360381019080803573ffffffffffffffffffffffffffffffffffffffff169060200190929190505050612797565b604051808215151515815260200191505060405180910390f35b3480156107cd57600080fd5b506107d6612861565b6040518082815260200191505060405180910390f35b3480156107f857600080fd5b5061082d600480360381019080803573ffffffffffffffffffffffffffffffffffffffff16906020019092919050505061286e565b6040518080602001858152602001848152602001838152602001828103825286818151815260200191508051906020019080838360005b8381101561087f578082015181840152602081019050610864565b50505050905090810190601f1680156108ac5780820380516001836020036101000a031916815260200191505b509550505050505060405180910390f35b3480156108c957600080fd5b506108fe600480360381019080803573ffffffffffffffffffffffffffffffffffffffff169060200190929190505050612ace565b6040518082815260200191505060405180910390f35b34801561092057600080fd5b5061093f60048036038101908080359060200190929190505050612ae6565b604051808273ffffffffffffffffffffffffffffffffffffffff1673ffffffffffffffffffffffffffffffffffffffff16815260200191505060405180910390f35b34801561098d57600080fd5b506109ac60048036038101908080359060200190929190505050612b29565b604051808273ffffffffffffffffffffffffffffffffffffffff1673ffffffffffffffffffffffffffffffffffffffff16815260200191505060405180910390f35b6109f6612b67565b005b6000610a0383612797565b1515610a9d576040517f08c379a000000000000000000000000000000000000000000000000000000000815260040180806020018281038252602e8152602001807f43616e277420757064617465205175616e746974792c2050726f64756374206481526020017f6f6573206e6f742065786973742e00000000000000000000000000000000000081525060400191505060405180910390fd5b81600660008573ffffffffffffffffffffffffffffffffffffffff1673ffffffffffffffffffffffffffffffffffffffff168152602001908152602001600020600201819055508273ffffffffffffffffffffffffffffffffffffffff167f515556460978198172693903d11d7844e62e3b7a3cae03403d8d4b57bc64749c600660008673ffffffffffffffffffffffffffffffffffffffff1673ffffffffffffffffffffffffffffffffffffffff16815260200190815260200160002060040154600660008773ffffffffffffffffffffffffffffffffffffffff1673ffffffffffffffffffffffffffffffffffffffff168152602001908152602001600020600001600660008873ffffffffffffffffffffffffffffffffffffffff1673ffffffffffffffffffffffffffffffffffffffff16815260200190815260200160002060010154866040518085815260200180602001848152602001838152602001828103825285818154600181600116156101000203166002900481526020019150805460018160011615610100020316600290048015610c805780601f10610c5557610100808354040283529160200191610c80565b820191906000526020600020905b815481529060010190602001808311610c6357829003601f168201915b50509550505050505060405180910390a26001905092915050565b60606007805480602002602001604051908101604052809291908181526020018280548015610d1f57602002820191906000526020600020905b8160009054906101000a900473ffffffffffffffffffffffffffffffffffffffff1673ffffffffffffffffffffffffffffffffffffffff1681526020019060010190808311610cd5575b5050505050905090565b60003373ffffffffffffffffffffffffffffffffffffffff166000809054906101000a900473ffffffffffffffffffffffffffffffffffffffff1673ffffffffffffffffffffffffffffffffffffffff16141515610def576040517f08c379a000000000000000000000000000000000000000000000000000000000815260040180806020018281038252601c8152602001807f456e64207573657220697320616e2041646d696e6973747261746f720000000081525060200191505060405180910390fd5b600b60009054906101000a900460ff1615600b60006101000a81548160ff021916908315150217905550600b60009054906101000a900460ff16905090565b60008060009054906101000a900473ffffffffffffffffffffffffffffffffffffffff16905090565b60606005805480602002602001604051908101604052809291908181526020018280548015610edb57602002820191906000526020600020905b8160009054906101000a900473ffffffffffffffffffffffffffffffffffffffff1673ffffffffffffffffffffffffffffffffffffffff1681526020019060010190808311610e91575b5050505050905090565b600083600160006101000a81548173ffffffffffffffffffffffffffffffffffffffff021916908373ffffffffffffffffffffffffffffffffffffffff160217905550610f53600160009054906101000a900473ffffffffffffffffffffffffffffffffffffffff16611461565b151515610fc8576040517f08c379a000000000000000000000000000000000000000000000000000000000815260040180806020018281038252601a8152602001807f53746f7265204f776e657220616c72656164792065786973747300000000000081525060200191505060405180910390fd5b8260046000600160009054906101000a900473ffffffffffffffffffffffffffffffffffffffff1673ffffffffffffffffffffffffffffffffffffffff1673ffffffffffffffffffffffffffffffffffffffff1681526020019081526020016000206001019080519060200190611040929190612e2b565b508160046000600160009054906101000a900473ffffffffffffffffffffffffffffffffffffffff1673ffffffffffffffffffffffffffffffffffffffff1673ffffffffffffffffffffffffffffffffffffffff16815260200190815260200160002060020190805190602001906110b9929190612e2b565b5060016005600160009054906101000a900473ffffffffffffffffffffffffffffffffffffffff1690806001815401808255809150509060018203906000526020600020016000909192909190916101000a81548173ffffffffffffffffffffffffffffffffffffffff021916908373ffffffffffffffffffffffffffffffffffffffff1602179055500360046000600160009054906101000a900473ffffffffffffffffffffffffffffffffffffffff1673ffffffffffffffffffffffffffffffffffffffff1673ffffffffffffffffffffffffffffffffffffffff1681526020019081526020016000206003018190555060016005805490500390509392505050565b60006111c983612797565b1515611263576040517f08c379a000000000000000000000000000000000000000000000000000000000815260040180806020018281038252602b8152602001807f43616e2774207570646174652050726963652c2050726f6475637420646f657381526020017f206e6f742065786973742e00000000000000000000000000000000000000000081525060400191505060405180910390fd5b81600660008573ffffffffffffffffffffffffffffffffffffffff1673ffffffffffffffffffffffffffffffffffffffff168152602001908152602001600020600101819055508273ffffffffffffffffffffffffffffffffffffffff167f515556460978198172693903d11d7844e62e3b7a3cae03403d8d4b57bc64749c600660008673ffffffffffffffffffffffffffffffffffffffff1673ffffffffffffffffffffffffffffffffffffffff16815260200190815260200160002060040154600660008773ffffffffffffffffffffffffffffffffffffffff1673ffffffffffffffffffffffffffffffffffffffff16815260200190815260200160002060000185600660008973ffffffffffffffffffffffffffffffffffffffff1673ffffffffffffffffffffffffffffffffffffffff1681526020019081526020016000206002015460405180858152602001806020018481526020018381526020018281038252858181546001816001161561010002031660029004815260200191508054600181600116156101000203166002900480156114465780601f1061141b57610100808354040283529160200191611446565b820191906000526020600020905b81548152906001019060200180831161142957829003601f168201915b50509550505050505060405180910390a26001905092915050565b60008060058054905014156114795760009050611526565b8173ffffffffffffffffffffffffffffffffffffffff166005600460008573ffffffffffffffffffffffffffffffffffffffff1673ffffffffffffffffffffffffffffffffffffffff168152602001908152602001600020600301548154811015156114e157fe5b9060005260206000200160009054906101000a900473ffffffffffffffffffffffffffffffffffffffff1673ffffffffffffffffffffffffffffffffffffffff161490505b919050565b6000806000806007805490508511158015611547575060008510155b15156115bb576040517f08c379a000000000000000000000000000000000000000000000000000000000815260040180806020018281038252601e8152602001807f43616e27742064656c657465206e6f2050726f6475637420666f756e642e000081525060200191505060405180910390fd5b8492506007858154811015156115cd57fe5b9060005260206000200160009054906101000a900473ffffffffffffffffffffffffffffffffffffffff169150600760016007805490500381548110151561161157fe5b9060005260206000200160009054906101000a900473ffffffffffffffffffffffffffffffffffffffff1690508060078481548110151561164e57fe5b9060005260206000200160006101000a81548173ffffffffffffffffffffffffffffffffffffffff021916908373ffffffffffffffffffffffffffffffffffffffff16021790555082600660008373ffffffffffffffffffffffffffffffffffffffff1673ffffffffffffffffffffffffffffffffffffffff1681526020019081526020016000206004018190555060078054809190600190036116f29190612eab565b508173ffffffffffffffffffffffffffffffffffffffff167f6e8b707c4b2834acb092519ec014d777e3e3fb60ab869094a7a6206b457f1fc4846040518082815260200191505060405180910390a28073ffffffffffffffffffffffffffffffffffffffff167f515556460978198172693903d11d7844e62e3b7a3cae03403d8d4b57bc64749c84600660008573ffffffffffffffffffffffffffffffffffffffff1673ffffffffffffffffffffffffffffffffffffffff168152602001908152602001600020600001600660008673ffffffffffffffffffffffffffffffffffffffff1673ffffffffffffffffffffffffffffffffffffffff16815260200190815260200160002060010154600660008773ffffffffffffffffffffffffffffffffffffffff1673ffffffffffffffffffffffffffffffffffffffff1681526020019081526020016000206002015460405180858152602001806020018481526020018381526020018281038252858181546001816001161561010002031660029004815260200191508054600181600116156101000203166002900480156118dd5780601f106118b2576101008083540402835291602001916118dd565b820191906000526020600020905b8154815290600101906020018083116118c057829003601f168201915b50509550505050505060405180910390a2819350505050919050565b60008173ffffffffffffffffffffffffffffffffffffffff16319050919050565b6000803373ffffffffffffffffffffffffffffffffffffffff16600160009054906101000a900473ffffffffffffffffffffffffffffffffffffffff1673ffffffffffffffffffffffffffffffffffffffff161415156119e2576040517f08c379a00000000000000000000000000000000000000000000000000000000081526004018080602001828103825260198152602001807f456e64207573657220697320612053746f7265204f776e65720000000000000081525060200191505060405180910390fd5b600b60009054906101000a900460ff1615611ba457600160009054906101000a900473ffffffffffffffffffffffffffffffffffffffff1673ffffffffffffffffffffffffffffffffffffffff163373ffffffffffffffffffffffffffffffffffffffff16141515611abc576040517f08c379a00000000000000000000000000000000000000000000000000000000081526004018080602001828103825260198152602001807f596f7520617265206e6f7420612053746f7265204f776e65720000000000000081525060200191505060405180910390fd5b611ac5836118f9565b90506000811115611b9e576000600960003373ffffffffffffffffffffffffffffffffffffffff1673ffffffffffffffffffffffffffffffffffffffff168152602001908152602001600020819055503373ffffffffffffffffffffffffffffffffffffffff166108fc829081150290604051600060405180830381858888f193505050501515611b9d5780600960003373ffffffffffffffffffffffffffffffffffffffff1673ffffffffffffffffffffffffffffffffffffffff1681526020019081526020016000208190555060009150611ba3565b5b600191505b5b50919050565b600080611bb5612ed7565b604051809103906000f080158015611bd1573d6000803e3d6000fd5b509050611bdd81612797565b151515611c52576040517f08c379a00000000000000000000000000000000000000000000000000000000081526004018080602001828103825260168152602001807f50726f6475637420616c7265616479206578697374730000000000000000000081525060200191505060405180910390fd5b84600660008373ffffffffffffffffffffffffffffffffffffffff1673ffffffffffffffffffffffffffffffffffffffff1681526020019081526020016000206000019080519060200190611ca8929190612e2b565b5083600660008373ffffffffffffffffffffffffffffffffffffffff1673ffffffffffffffffffffffffffffffffffffffff1681526020019081526020016000206001018190555082600660008373ffffffffffffffffffffffffffffffffffffffff1673ffffffffffffffffffffffffffffffffffffffff16815260200190815260200160002060020181905550600160038790806001815401808255809150509060018203906000526020600020016000909192909190916101000a81548173ffffffffffffffffffffffffffffffffffffffff021916908373ffffffffffffffffffffffffffffffffffffffff16021790555003600660008373ffffffffffffffffffffffffffffffffffffffff1673ffffffffffffffffffffffffffffffffffffffff16815260200190815260200160002060030181905550600160078290806001815401808255809150509060018203906000526020600020016000909192909190916101000a81548173ffffffffffffffffffffffffffffffffffffffff021916908373ffffffffffffffffffffffffffffffffffffffff16021790555003600660008373ffffffffffffffffffffffffffffffffffffffff1673ffffffffffffffffffffffffffffffffffffffff168152602001908152602001600020600401819055508073ffffffffffffffffffffffffffffffffffffffff167fb72a24e49c47bfc4929fe670c4f143317616ac67795ea7db62399bd2da926979600660008473ffffffffffffffffffffffffffffffffffffffff1673ffffffffffffffffffffffffffffffffffffffff168152602001908152602001600020600401546003600660008673ffffffffffffffffffffffffffffffffffffffff1673ffffffffffffffffffffffffffffffffffffffff16815260200190815260200160002060030154815481101515611f5f57fe5b9060005260206000200160009054906101000a900473ffffffffffffffffffffffffffffffffffffffff16600660008673ffffffffffffffffffffffffffffffffffffffff1673ffffffffffffffffffffffffffffffffffffffff16815260200190815260200160002060030154898989604051808781526020018673ffffffffffffffffffffffffffffffffffffffff1673ffffffffffffffffffffffffffffffffffffffff16815260200185815260200180602001848152602001838152602001828103825285818151815260200191508051906020019080838360005b8381101561205a57808201518184015260208101905061203f565b50505050905090810190601f1680156120875780820380516001836020036101000a031916815260200191505b5097505050505050505060405180910390a2600160078054905003915050949350505050565b6000600b60009054906101000a900460ff1615156124fa576000600660008473ffffffffffffffffffffffffffffffffffffffff1673ffffffffffffffffffffffffffffffffffffffff168152602001908152602001600020600201541415151561211757600080fd5b600660008373ffffffffffffffffffffffffffffffffffffffff1673ffffffffffffffffffffffffffffffffffffffff16815260200190815260200160002060010154612163336118f9565b1015151561217057600080fd5b600960006003600660008673ffffffffffffffffffffffffffffffffffffffff1673ffffffffffffffffffffffffffffffffffffffff168152602001908152602001600020600401548154811015156121c557fe5b9060005260206000200160009054906101000a900473ffffffffffffffffffffffffffffffffffffffff1673ffffffffffffffffffffffffffffffffffffffff1673ffffffffffffffffffffffffffffffffffffffff16815260200190815260200160002054600660008473ffffffffffffffffffffffffffffffffffffffff1673ffffffffffffffffffffffffffffffffffffffff16815260200190815260200160002060010154600960006003600660008873ffffffffffffffffffffffffffffffffffffffff1673ffffffffffffffffffffffffffffffffffffffff168152602001908152602001600020600401548154811015156122c357fe5b9060005260206000200160009054906101000a900473ffffffffffffffffffffffffffffffffffffffff1673ffffffffffffffffffffffffffffffffffffffff1673ffffffffffffffffffffffffffffffffffffffff16815260200190815260200160002054011015151561233757600080fd5b612340336118f9565b600660008473ffffffffffffffffffffffffffffffffffffffff1673ffffffffffffffffffffffffffffffffffffffff1681526020019081526020016000206001015461238c336118f9565b031115151561239a57600080fd5b6001600660008473ffffffffffffffffffffffffffffffffffffffff1673ffffffffffffffffffffffffffffffffffffffff16815260200190815260200160002060020160008282540392505081905550600660008373ffffffffffffffffffffffffffffffffffffffff1673ffffffffffffffffffffffffffffffffffffffff16815260200190815260200160002060010154600960006003600660008873ffffffffffffffffffffffffffffffffffffffff1673ffffffffffffffffffffffffffffffffffffffff1681526020019081526020016000206004015481548110151561248357fe5b9060005260206000200160009054906101000a900473ffffffffffffffffffffffffffffffffffffffff1673ffffffffffffffffffffffffffffffffffffffff1673ffffffffffffffffffffffffffffffffffffffff16815260200190815260200160002060008282540192505081905550600190505b92915050565b600061250b83612797565b15156125a5576040517f08c379a00000000000000000000000000000000000000000000000000000000081526004018080602001828103825260298152602001807f43616e277420757064617465204e616d652c2050726f6475637420646f65732081526020017f6e6f74206578697374000000000000000000000000000000000000000000000081525060400191505060405180910390fd5b81600660008573ffffffffffffffffffffffffffffffffffffffff1673ffffffffffffffffffffffffffffffffffffffff16815260200190815260200160002060000190805190602001906125fb929190612e2b565b508273ffffffffffffffffffffffffffffffffffffffff167f515556460978198172693903d11d7844e62e3b7a3cae03403d8d4b57bc64749c600660008673ffffffffffffffffffffffffffffffffffffffff1673ffffffffffffffffffffffffffffffffffffffff1681526020019081526020016000206004015484600660008873ffffffffffffffffffffffffffffffffffffffff1673ffffffffffffffffffffffffffffffffffffffff16815260200190815260200160002060010154600660008973ffffffffffffffffffffffffffffffffffffffff1673ffffffffffffffffffffffffffffffffffffffff168152602001908152602001600020600201546040518085815260200180602001848152602001838152602001828103825285818151815260200191508051906020019080838360005b83811015612750578082015181840152602081019050612735565b50505050905090810190601f16801561277d5780820380516001836020036101000a031916815260200191505b509550505050505060405180910390a26001905092915050565b60008060078054905014156127af576000905061285c565b8173ffffffffffffffffffffffffffffffffffffffff166007600660008573ffffffffffffffffffffffffffffffffffffffff1673ffffffffffffffffffffffffffffffffffffffff1681526020019081526020016000206004015481548110151561281757fe5b9060005260206000200160009054906101000a900473ffffffffffffffffffffffffffffffffffffffff1673ffffffffffffffffffffffffffffffffffffffff161490505b919050565b6000600780549050905090565b6060600080600061287e85612797565b1515612918576040517f08c379a00000000000000000000000000000000000000000000000000000000081526004018080602001828103825260238152602001807f4e6f2044657461696c732c2050726f6475637420646f6573206e6f742065786981526020017f73742e000000000000000000000000000000000000000000000000000000000081525060400191505060405180910390fd5b600660008673ffffffffffffffffffffffffffffffffffffffff1673ffffffffffffffffffffffffffffffffffffffff168152602001908152602001600020600001600660008773ffffffffffffffffffffffffffffffffffffffff1673ffffffffffffffffffffffffffffffffffffffff16815260200190815260200160002060010154600660008873ffffffffffffffffffffffffffffffffffffffff1673ffffffffffffffffffffffffffffffffffffffff16815260200190815260200160002060020154600660008973ffffffffffffffffffffffffffffffffffffffff1673ffffffffffffffffffffffffffffffffffffffff16815260200190815260200160002060040154838054600181600116156101000203166002900480601f016020809104026020016040519081016040528092919081815260200182805460018160011615610100020316600290048015612ab85780601f10612a8d57610100808354040283529160200191612ab8565b820191906000526020600020905b815481529060010190602001808311612a9b57829003601f168201915b5050505050935093509350935093509193509193565b60086020528060005260406000206000915090505481565b6000600782815481101515612af757fe5b9060005260206000200160009054906101000a900473ffffffffffffffffffffffffffffffffffffffff169050919050565b600381815481101515612b3857fe5b906000526020600020016000915054906101000a900473ffffffffffffffffffffffffffffffffffffffff1681565b60003373ffffffffffffffffffffffffffffffffffffffff16600160009054906101000a900473ffffffffffffffffffffffffffffffffffffffff1673ffffffffffffffffffffffffffffffffffffffff16141515612c2e576040517f08c379a00000000000000000000000000000000000000000000000000000000081526004018080602001828103825260198152602001807f456e64207573657220697320612053746f7265204f776e65720000000000000081525060200191505060405180910390fd5b600160009054906101000a900473ffffffffffffffffffffffffffffffffffffffff1673ffffffffffffffffffffffffffffffffffffffff163373ffffffffffffffffffffffffffffffffffffffff16141515612cf3576040517f08c379a00000000000000000000000000000000000000000000000000000000081526004018080602001828103825260198152602001807f596f7520617265206e6f7420612053746f7265204f776e65720000000000000081525060200191505060405180910390fd5b612cfb612ee7565b604051809103906000f080158015612d17573d6000803e3d6000fd5b5090507fd1ae21c089a795731641d60519bb7494c52508e75fe0ff85d9e5350e1c9ef69081604051808273ffffffffffffffffffffffffffffffffffffffff1673ffffffffffffffffffffffffffffffffffffffff16815260200191505060405180910390a160038190806001815401808255809150509060018203906000526020600020016000909192909190916101000a81548173ffffffffffffffffffffffffffffffffffffffff021916908373ffffffffffffffffffffffffffffffffffffffff160217905550506000600960008373ffffffffffffffffffffffffffffffffffffffff1673ffffffffffffffffffffffffffffffffffffffff1681526020019081526020016000208190555050565b828054600181600116156101000203166002900490600052602060002090601f016020900481019282601f10612e6c57805160ff1916838001178555612e9a565b82800160010185558215612e9a579182015b82811115612e99578251825591602001919060010190612e7e565b5b509050612ea79190612ef7565b5090565b815481835581811115612ed257818360005260206000209182019101612ed19190612ef7565b5b505050565b60405161014880612f1d83390190565b6040516101488061306583390190565b612f1991905b80821115612f15576000816000905550600101612efd565b5090565b905600608060405234801561001057600080fd5b50336000806101000a81548173ffffffffffffffffffffffffffffffffffffffff021916908373ffffffffffffffffffffffffffffffffffffffff16021790555060e98061005f6000396000f300608060405260043610603f576000357c0100000000000000000000000000000000000000000000000000000000900463ffffffff1680638da5cb5b146044575b600080fd5b348015604f57600080fd5b5060566098565b604051808273ffffffffffffffffffffffffffffffffffffffff1673ffffffffffffffffffffffffffffffffffffffff16815260200191505060405180910390f35b6000809054906101000a900473ffffffffffffffffffffffffffffffffffffffff16815600a165627a7a723058207aaef738010dec304a4f63913449b260f30b7991c9999ee75472342a14d1ea8a0029608060405234801561001057600080fd5b50336000806101000a81548173ffffffffffffffffffffffffffffffffffffffff021916908373ffffffffffffffffffffffffffffffffffffffff16021790555060e98061005f6000396000f300608060405260043610603f576000357c0100000000000000000000000000000000000000000000000000000000900463ffffffff1680638da5cb5b146044575b600080fd5b348015604f57600080fd5b5060566098565b604051808273ffffffffffffffffffffffffffffffffffffffff1673ffffffffffffffffffffffffffffffffffffffff16815260200191505060405180910390f35b6000809054906101000a900473ffffffffffffffffffffffffffffffffffffffff16815600a165627a7a723058209a86ea5e871dacf0f64dda50c8e198d19c9caf8689815f566558cc00e6a8bfcc0029a165627a7a7230582069d8d7d6260e2ac1bcbe0056dc6eef7cf4e63fbac536f6e8a5507db17fb39bf90029",
  "source": "pragma solidity ^0.4.21;\r\n\r\n// Imported Contract to create new Product Address\r\nimport \"../contracts/NewProduct.sol\";\r\n\r\n// Imported Contract to create new Store Address\r\nimport \"../contracts/Store.sol\";\r\n\r\n/*\r\nTotalMarketplace Contract is designed for the creation of an Online Marketplace.\r\nThe intended smart contract functionality defines the Administrator, Store Owner,\r\nClient, Stores and Products. The intent is to be able to trace market transactions,\r\ninventory, Owners and Stores on the Blockchain. This contract is built to the\r\nStory from the Consensys Online Marketplace outlined in the Final Project Document.\r\nUser Stories where used to the best of my experience to create specific user\r\nfunctionality based on the content I learned from the course.\r\n*/\r\ncontract TotalMarketplace {\r\n\r\n    /*\r\n    Administrator is the only user that can define Store Owners and is set as the\r\n    Contract instantiator by default.\r\n    */\r\n    address administrator;\r\n\r\n    /*\r\n    storeOwner is the Owner, Creator and updater of Stores and Products\r\n    */\r\n    address storeOwner;\r\n\r\n    /*\r\n    Client is an enduser that wishes to interact with the Marketplace\r\n    */\r\n    address client;\r\n\r\n    // Public list of all the Available stores presently created.\r\n    address[] public stores;\r\n\r\n    // Event to emit the creation of a store to the console.\r\n    event LogStoreCreated(address store);\r\n\r\n    // Event to emit the creation of a new product to the console as well as the details of the product.\r\n    event LogNewProd(address indexed productAddress, uint index, address storeAddress, uint indexStore, string prodName, uint prodPrice, uint prodQty);\r\n\r\n    // Event to emit the modification of an existing product to the console including change details and product details\r\n    event LogUpdateProd(address indexed productAddress, uint index, string prodName, uint prodPrice, uint prodQty);\r\n\r\n    // Event to emit the deletion of a Product Address and Product Index to the console.\r\n    event LogDeleteProd(address indexed productAddress, uint index);\r\n\r\n    /*\r\n    OwnerStruct is intended to define the details of a Store OwnerStruct\r\n    Functionally only the address ownerAddress is presently required or\r\n    in use. Additional properties are for future identifiers and growth.\r\n    */\r\n    struct OwnerStruct {\r\n        address ownerAddress;\r\n        string ownerName;\r\n        string ownerEmail;\r\n        uint index;\r\n    }\r\n\r\n    // Index point for the OwnerStructs, for retrieving defined data.\r\n    mapping(address => OwnerStruct) private OwnerStructs;\r\n\r\n    /*\r\n    Private list of the Store Owners intended to limit calls outside of this\r\n    contract to manipulate adding undesired storeOwners to the list. Or changing\r\n    existing storeOwners to a different address to perform a withdrawl.\r\n    */\r\n    address[] private storeOwners;\r\n\r\n    /*\r\n    StoreStruct is intended to define the details of a Product StoreStruct\r\n    Properties detail the traits of a product including Product Name,\r\n    Product Price, Product Quantity, Store Index for storing Product Address,\r\n    Index for storing Product Address in prodIndex Array and finally balance\r\n    for any balance transfers that may occur.\r\n    */\r\n    struct StoreStruct {\r\n        string prodName;\r\n        uint prodPrice;\r\n        uint prodQty;\r\n        uint storeIndex;\r\n        uint index;\r\n        uint balance;\r\n    }\r\n\r\n    // Index point for the StoreStruct, for retrieving defined data.\r\n    mapping(address => StoreStruct) private StoreStructs;\r\n\r\n    // Product Index array for iterating over the StoreStruct for specific values\r\n    address[] private prodIndex;\r\n\r\n    // Index for retrieving UserBalance\r\n    mapping (address => uint) public UserBalance;\r\n\r\n    // Index for retrieving StoreBalance\r\n    mapping (address => uint) private StoreBalance;\r\n\r\n    // Index for retrieving OwnerBalance\r\n    mapping (address => uint) private OwnerBalance;\r\n\r\n    // Contract constructor\r\n    constructor () public {\r\n        // Sets initial contract creator to administrator\r\n        administrator = msg.sender;\r\n\r\n        /*\r\n        check to see if the msg.sender isn't administrator and isOwner returns\r\n        true then the msg.sender is a storeowner. Otherwise msg.sender is a\r\n        client.\r\n        */\r\n        if(msg.sender != administrator && isOwner(msg.sender) == true){\r\n            storeOwner = msg.sender;\r\n        } else {\r\n            client = msg.sender;\r\n        }\r\n\r\n    }\r\n\r\n    /*\r\n    Circuit Breaker boolean that can be set to true if there is a bug\r\n    discovered in the code. Default's to false and is set to true by\r\n    the Administrator only.\r\n    */\r\n    bool private stopped = false; // circuit breaker bool\r\n\r\n    /*\r\n    If a function has this modifier in a not stopped state it can prohibit an\r\n    action from taking place. Have implemented this on purchaseProduct function.\r\n    */\r\n    modifier stopInEmergency {\r\n        if (!stopped)\r\n        _;\r\n    }\r\n\r\n    /*\r\n    If a function has this modifier in a stopped state it will prohibit an\r\n    action from taking place. Have implemented this on withdraw function.\r\n    */\r\n    modifier onlyInEmergency {\r\n        if (stopped)\r\n        _;\r\n    }\r\n\r\n    /*\r\n    Modifier OnlyAdmin restrict access to certain function if this modifier is present\r\n    requires that the msg.sender be equal to the Administrator in order to call the\r\n    desired function.\r\n    */\r\n    modifier OnlyAdmin {\r\n        require(administrator == msg.sender, \"End user is an Administrator\");\r\n        _;\r\n    }\r\n\r\n    /*\r\n    Modifier OnlyStoreOwner restrict access to certain function if this modifier\r\n    is present requires that the msg.sender be equal to a Store Owner to call the\r\n    desired function.\r\n    */\r\n    modifier OnlyStoreOwner {\r\n        require(storeOwner == msg.sender, \"End user is a Store Owner\");\r\n        _;\r\n    }\r\n\r\n    /*\r\n    Function to toggle whether or not the Contract is active and receptive or\r\n    if the contract needs to be stopped because a bug is found. This will presently\r\n    only implement the Purchase Product and Withdraw Functions in this smartContract.\r\n    */\r\n    function toggleContractActive() OnlyAdmin public returns (bool){\r\n        stopped = !stopped;\r\n        return (stopped);\r\n    }\r\n\r\n    /*\r\n    Boolean function to check if a passed address is an Owner\r\n    */\r\n    function isOwner(address ownerAddress)\r\n    public\r\n    constant\r\n    returns(bool isIndeed){\r\n        if(storeOwners.length == 0) return false;\r\n        return (storeOwners[OwnerStructs[ownerAddress].index] == ownerAddress);\r\n    }\r\n\r\n    // Function to get the Address of the Administrator for the Contract.\r\n    function getAdministrator ()\r\n    public\r\n    view\r\n    returns(address){\r\n        return(administrator);\r\n    }\r\n\r\n    /*\r\n        This function sets the Store Owner the only person that can withdraw\r\n        from a store. The \"require\" needs the administrator to the msg.sender in\r\n        order to be the one assigning whom a store owner is and also prevents\r\n        the administrator from assigning themselves as the store owner (We don't\r\n        need the administrator making themselves an owner and withdrawing the\r\n        stored funds)\r\n    */\r\n    function setStoreOwner(\r\n        address ownerAddress,\r\n        string ownerName,\r\n        string ownerEmail)\r\n        //OnlyAdmin\r\n        public\r\n        returns(uint index){\r\n        // Must be an Administrator to Set the Store Owner\r\n        //require(msg.sender == administrator, \"You are not an Administrator\");\r\n\r\n        /*\r\n        Prohibit the Administrator from being a Store Owner to prohibit setting themselves\r\n        as a StoreOwner or changing the array so that they are the Store Owner for all\r\n        Stores.\r\n        */\r\n        //require(ownerAddress != administrator, \"Administrator cannot be a Store Owner\");\r\n\r\n        // Store Owner is the provided ownerAddress from the Administrator\r\n        storeOwner = ownerAddress;\r\n\r\n        // Checks to make sure that the new Store Owner doesn't already exist\r\n        require(!isOwner(storeOwner),\"Store Owner already exists\");\r\n\r\n        // Sets the OwnerStructs property for Owner Name to ownerName\r\n        OwnerStructs[storeOwner].ownerName = ownerName;\r\n\r\n        // Sets the OwnerStructs property for Owner Email to ownerEmail\r\n        OwnerStructs[storeOwner].ownerEmail = ownerEmail;\r\n\r\n        // Pushes storeOwner index property to the StoreOwners Array\r\n        OwnerStructs[storeOwner].index = storeOwners.push(storeOwner)-1;\r\n\r\n        // returns the updated lenght of the Store Owners array.\r\n        return storeOwners.length-1;\r\n    }\r\n\r\n    // Function to output all of the Store Owners in the Store Owners Array\r\n    function getOwnersIndex() public view returns(address[]){\r\n      return storeOwners;\r\n    }\r\n\r\n    /*\r\n    Function to Create Store calls store contract to make a new store address\r\n    and then pushes the new Store address to the Stores Array.\r\n    */\r\n    function createStore() OnlyStoreOwner payable public {\r\n        // Checks that the requestor of Create Store is a Store Owner.\r\n        require(msg.sender==storeOwner, \"You are not a Store Owner\");\r\n\r\n        // Calls Store contract to Create new Store address.\r\n        Store store = new Store();\r\n\r\n        // Outputs the Address of the Store Created\r\n        emit LogStoreCreated(store);\r\n\r\n        // Pushes the new Store Address to the Stores Array\r\n        stores.push(store);\r\n\r\n        /*\r\n        Set the new Store's Balance to 0, intended to prevent outside manipulation\r\n        of the contract to set a negative value or send an amount of Ether that could\r\n        potentially end up lost.\r\n        */\r\n        StoreBalance[store] = 0;\r\n    }\r\n\r\n    /*\r\n    Function to check if the ProductAddress exists in the prodIndex array. If the\r\n    product index array is length 0 then it returns false meaning the product does\r\n    note exist. If however the check passes it compares the Product Address in\r\n    StoreStructs to the provided product address to validate it exists returning\r\n    true.\r\n    */\r\n    function isProd(address productAddress)\r\n    public\r\n    constant\r\n    returns(bool isIndeed){\r\n        if(prodIndex.length == 0) return false;\r\n        return (prodIndex[StoreStructs[productAddress].index] == productAddress);\r\n    }\r\n\r\n    /*\r\n    Function that creates a new Product with the Passed values from the Store Owner\r\n    and generates a new Product Address. Store Index is intended to track which\r\n    Products are associated with the Store.\r\n    */\r\n    function insertProd(\r\n    address storeAddress,\r\n    string prodName,\r\n    uint prodPrice,\r\n    uint prodQty)\r\n    //OnlyStoreOwner\r\n    public\r\n    returns(uint index){\r\n        // Only a Store Owner can Create new Products\r\n        //require(msg.sender==storeOwner,\"You are not a Store Owner\");\r\n\r\n        // Call NewProduct contract to create new Product Address\r\n        NewProduct product = new NewProduct();\r\n\r\n        // Check to make sure that the product does not currently exist\r\n        require(!isProd(product),\"Product already exists\");\r\n\r\n        // Set StoreStructs Property Product Name to the passed prodName\r\n        StoreStructs[product].prodName = prodName;\r\n\r\n        // Set StoreStructs Property Product Price to the passed prodPrice\r\n        StoreStructs[product].prodPrice = prodPrice;\r\n\r\n        // Set StoreStructs Property Product Quantity to the passed prodQty\r\n        StoreStructs[product].prodQty = prodQty;\r\n\r\n        // Set StoreStructs Store Index to track product to the Store Address\r\n        StoreStructs[product].storeIndex = stores.push(storeAddress)-1;\r\n\r\n        // Set StoreStructs Product Index to track the number of Products presently\r\n        StoreStructs[product].index = prodIndex.push(product)-1;\r\n\r\n        /*\r\n        Logs the Product Address, Product Index, Store Address, Store Index,\r\n        Product Name, Product price and product quantity in a human readable\r\n        log.\r\n        */\r\n        emit LogNewProd(\r\n            product,\r\n            StoreStructs[product].index,\r\n            stores[StoreStructs[product].storeIndex],\r\n            StoreStructs[product].storeIndex,\r\n            prodName,\r\n            prodPrice,\r\n            prodQty);\r\n        return prodIndex.length-1;\r\n    }\r\n\r\n    /*\r\n    Function to get the Product Address from a specific index in the\r\n    Product Index Array.\r\n    */\r\n    function getProdAtIndex(uint index)\r\n    public\r\n    constant\r\n    returns(address prodAddress){\r\n        return prodIndex[index];\r\n    }\r\n\r\n    /*\r\n    Function to Delete Product via a passed Index value. Delete works by\r\n    effectively copying the last value over the desired value to delete\r\n    and depracting the prodIndex array length by -1.\r\n    */\r\n    function deleteProd(uint index)\r\n    //OnlyStoreOwner\r\n    public\r\n    returns(address productAddress){\r\n        // Ensure requested modifier is being done by Store Owner\r\n        //require(msg.sender==storeOwner,\"You are not a Store Owner\");\r\n\r\n        // Ensure the index is a value within the bounds of the array otherwise terminate\r\n        require(index <= prodIndex.length && index >= 0, \"Can't delete no Product found.\");\r\n\r\n        // Array value you wish to delete\r\n        uint rowToDelete = index;\r\n\r\n        // Product Address Key you wish to delete\r\n        address keyToDel = prodIndex[index];\r\n\r\n\r\n        // Final Product Address in the Array to move to replace key you wish to delete\r\n        address keyToMove = prodIndex[prodIndex.length-1];\r\n\r\n        // Sets Key to Move to desired delete location\r\n        prodIndex[rowToDelete] = keyToMove;\r\n\r\n        // Deletes all the values from struct that match the row to delete\r\n        StoreStructs[keyToMove].index = rowToDelete;\r\n\r\n        // Deprecates Product Index Array by length of -1\r\n        prodIndex.length--;\r\n\r\n        /*\r\n        Outputs value of Key to be Deleted and the Index of the Row Deleted to\r\n        the Console.\r\n        */\r\n        emit LogDeleteProd(\r\n            keyToDel,\r\n            rowToDelete);\r\n\r\n        /*\r\n        Outputs value of Key to be Deleted and the Index of the Row Deleted to\r\n        the Console as well as the values that were moved from the end of the\r\n        array to the index of the row deleted.\r\n        */\r\n        emit LogUpdateProd(\r\n            keyToMove,\r\n            rowToDelete,\r\n            StoreStructs[keyToMove].prodName,\r\n            StoreStructs[keyToMove].prodPrice,\r\n            StoreStructs[keyToMove].prodQty);\r\n        return keyToDel;\r\n    }\r\n\r\n    /*\r\n    Function to get the Product Details for a specified Product address.\r\n    Should output Product Name, Product Price, Product Quantity and Index.\r\n    */\r\n    function getProdDetail(address productAddress)\r\n    public\r\n    constant\r\n    returns(string prodName, uint prodPrice, uint prodQty, uint index){\r\n        /*\r\n        Checks to see if product exists if nothing is found there is no reason to proceed\r\n        */\r\n        require(isProd(productAddress),\"No Details, Product does not exist.\");\r\n\r\n        // Return of above listed values.\r\n        return(\r\n            StoreStructs[productAddress].prodName,\r\n            StoreStructs[productAddress].prodPrice,\r\n            StoreStructs[productAddress].prodQty,\r\n            StoreStructs[productAddress].index);\r\n    }\r\n\r\n    /*\r\n    Function that Updates the Product Name by providing the Product address\r\n    and new Product Name, returning True if successful.\r\n    */\r\n    function updateProdName(address prodAddress, string prodName)\r\n    //OnlyStoreOwner\r\n    public\r\n    returns(bool success){\r\n        // Validate that the requestor of the change is the Store Owner\r\n        //require(msg.sender==storeOwner,\"You are not a Store Owner\");\r\n\r\n        // Validate that there is even a product with prodAddress to update, if not break\r\n        require(isProd(prodAddress),\"Can't update Name, Product does not exist\");\r\n\r\n        // Update the Product Address property Product Name with new Desired Name\r\n        StoreStructs[prodAddress].prodName = prodName;\r\n\r\n        /*\r\n        Output Product Update information to view transactional update is on correct\r\n        Product Address and that Product Name has changed.\r\n        */\r\n        emit LogUpdateProd(\r\n            prodAddress,\r\n            StoreStructs[prodAddress].index,\r\n            prodName,\r\n            StoreStructs[prodAddress].prodPrice,\r\n            StoreStructs[prodAddress].prodQty);\r\n        return true;\r\n    }\r\n\r\n     /*\r\n    Function that Updates the Product Price by providing the Product address\r\n    and new Product Price, returning True if successful.\r\n    */\r\n    function updateProdPrice(address prodAddress, uint prodPrice)\r\n    //OnlyStoreOwner\r\n    public\r\n    returns(bool success){\r\n        // Validate that the requestor of the change is the Store Owner\r\n        //require(msg.sender==storeOwner,\"You are not a Store Owner\");\r\n\r\n        // Validate that there is even a product with prodAddress to update, if not break\r\n        require(isProd(prodAddress), \"Can't update Price, Product does not exist.\");\r\n\r\n        // Update the Product Address property Product Price with new Desired Price\r\n        StoreStructs[prodAddress].prodPrice = prodPrice;\r\n\r\n        /*\r\n        Output Product Update information to view transactional update is on correct\r\n        Product Address and that Product Price has changed.\r\n        */\r\n        emit LogUpdateProd(\r\n            prodAddress,\r\n            StoreStructs[prodAddress].index,\r\n            StoreStructs[prodAddress].prodName,\r\n            prodPrice,\r\n            StoreStructs[prodAddress].prodQty);\r\n        return true;\r\n    }\r\n\r\n    /*\r\n    Function that Updates the Product Quantity by providing the Product address\r\n    and new Product Quantity, returning True if successful.\r\n    */\r\n    function updateProdQty(address prodAddress, uint prodQty)\r\n    //OnlyStoreOwner\r\n    public\r\n    returns(bool success){\r\n        // Validate that the requestor of the change is the Store Owner\r\n        //require(msg.sender==storeOwner,\"You are not a Store Owner\");\r\n\r\n        // Validate that there is even a product with prodAddress to update, if not break\r\n        require(isProd(prodAddress), \"Can't update Quantity, Product does not exist.\");\r\n\r\n        // Update the Product Address property Product Quantity with new Desired Quantity\r\n        StoreStructs[prodAddress].prodQty = prodQty;\r\n\r\n        /*\r\n        Output Product Update information to view transactional update is on correct\r\n        Product Address and that Product Quantity has changed.\r\n        */\r\n        emit LogUpdateProd(\r\n            prodAddress,\r\n            StoreStructs[prodAddress].index,\r\n            StoreStructs[prodAddress].prodName,\r\n            StoreStructs[prodAddress].prodPrice,\r\n            prodQty);\r\n        return true;\r\n    }\r\n\r\n    /*\r\n    Function that gets a count of the total number of products in the prodIndex\r\n    Array. Used for determing array length for the delete function.\r\n    */\r\n    function getProdCount()\r\n    public\r\n    constant\r\n    returns(uint count){\r\n        return prodIndex.length;\r\n    }\r\n\r\n    /*\r\n    Function that outputs all the listed Product Addresses in the\r\n    prodIndex Array.\r\n    */\r\n    function getProdIndex() public view returns(address[]){\r\n      return prodIndex;\r\n    }\r\n\r\n    /*\r\n    Function used to Check the Balance of any Address sent to it and returns\r\n    the listed balance.\r\n    */\r\n    function getUserBalance(address clientAddress) public view returns(uint balance){\r\n        return clientAddress.balance;\r\n    }\r\n\r\n    /*\r\n    Provide Store Address and Product Address to charge to client. Value will decrement\r\n    Clients wallet by the respective amount and decrease the quantity of the product\r\n    as well.\r\n    */\r\n    function purchaseProduct(address storeAddress, address prodAddress)\r\n    public\r\n    payable stopInEmergency\r\n    returns (bool success) {\r\n        // Check the store still has some Products in stock\r\n        require(StoreStructs[prodAddress].prodQty != 0);\r\n\r\n        // Check if sender has balance\r\n        require(getUserBalance(msg.sender)>= StoreStructs[prodAddress].prodPrice);\r\n\r\n        // Check for overflows\r\n        require(StoreBalance[stores[StoreStructs[prodAddress].index]] + StoreStructs[prodAddress].prodPrice >= StoreBalance[stores[StoreStructs[prodAddress].index]]);\r\n\r\n        // Check for underflows, ensure that User Balance minus product price won't go below zero.\r\n        require(getUserBalance(msg.sender) - StoreStructs[prodAddress].prodPrice <= getUserBalance(msg.sender));\r\n\r\n        // Deprecate Store Product Quantity by 1\r\n        StoreStructs[prodAddress].prodQty -= 1;\r\n\r\n        //UserBalance[msg.sender] -= StoreStructs[prodAddress].prodPrice;\r\n\r\n        // Add the value of the Product Price to the Store Address for future withdraw\r\n        StoreBalance[stores[StoreStructs[storeAddress].index]] += StoreStructs[prodAddress].prodPrice;\r\n\r\n        // Return Status true to signify successful purchase\r\n        return true;\r\n    }\r\n\r\n    /*\r\n    Function call to Withdraw funds from the Store Address and send them to the\r\n    Store Owner Address.\r\n    */\r\n    function withdraw(address storeAddress) OnlyStoreOwner public onlyInEmergency returns (bool) {\r\n        // Checks to make sure the requestor is the Store Owner.\r\n        require(msg.sender==storeOwner, \"You are not a Store Owner\");\r\n\r\n        // Amount is equal to the Balance returned for Store Address\r\n        uint amount = getUserBalance(storeAddress);\r\n\r\n        /*\r\n        If amount is greater than zero send the balance to the Store Owner and\r\n        set the balance to 0. This is intended to prevent a re-entry attack.\r\n        */\r\n        if (amount > 0) {\r\n            /*\r\n            It is important to set this to zero because the recipient\r\n            can call this function again as part of the receiving call\r\n            before `send` returns.\r\n            */\r\n            StoreBalance[msg.sender] = 0;\r\n\r\n            if (!msg.sender.send(amount)) {\r\n                // No need to call throw here, just reset the amount owing\r\n                StoreBalance[msg.sender] = amount;\r\n                return false;\r\n            }\r\n        }\r\n        return true;\r\n    }\r\n}\r\n",
  "sourcePath": "/home/zokuaku/Documents/Marketplace/contracts/TotalMarketplace.sol",
  "compiler": {
    "name": "solc",
    "version": "0.4.24+commit.e67f0147.Emscripten.clang"
  },
  "schemaVersion": "2.0.1",
  "updatedAt": "2018-08-28T11:41:15.283Z"
}